{
  "contractName": "GPTWarsLootboxNFT",
  "abi": [
    {
      "inputs": [
        {
          "internalType": "address",
          "name": "_gptWarsToken",
          "type": "address"
        }
      ],
      "stateMutability": "nonpayable",
      "type": "constructor"
    },
    {
      "anonymous": false,
      "inputs": [
        {
          "indexed": true,
          "internalType": "address",
          "name": "owner",
          "type": "address"
        },
        {
          "indexed": true,
          "internalType": "address",
          "name": "approved",
          "type": "address"
        },
        {
          "indexed": true,
          "internalType": "uint256",
          "name": "tokenId",
          "type": "uint256"
        }
      ],
      "name": "Approval",
      "type": "event"
    },
    {
      "anonymous": false,
      "inputs": [
        {
          "indexed": true,
          "internalType": "address",
          "name": "owner",
          "type": "address"
        },
        {
          "indexed": true,
          "internalType": "address",
          "name": "operator",
          "type": "address"
        },
        {
          "indexed": false,
          "internalType": "bool",
          "name": "approved",
          "type": "bool"
        }
      ],
      "name": "ApprovalForAll",
      "type": "event"
    },
    {
      "anonymous": false,
      "inputs": [
        {
          "indexed": false,
          "internalType": "uint256",
          "name": "_fromTokenId",
          "type": "uint256"
        },
        {
          "indexed": false,
          "internalType": "uint256",
          "name": "_toTokenId",
          "type": "uint256"
        }
      ],
      "name": "BatchMetadataUpdate",
      "type": "event"
    },
    {
      "anonymous": false,
      "inputs": [
        {
          "indexed": true,
          "internalType": "address",
          "name": "user",
          "type": "address"
        },
        {
          "indexed": false,
          "internalType": "uint256",
          "name": "tokenId",
          "type": "uint256"
        },
        {
          "indexed": false,
          "internalType": "string",
          "name": "cosmeticName",
          "type": "string"
        },
        {
          "indexed": false,
          "internalType": "string",
          "name": "metadataURI",
          "type": "string"
        }
      ],
      "name": "CosmeticMinted",
      "type": "event"
    },
    {
      "anonymous": false,
      "inputs": [
        {
          "indexed": true,
          "internalType": "address",
          "name": "user",
          "type": "address"
        },
        {
          "indexed": false,
          "internalType": "uint256",
          "name": "quantity",
          "type": "uint256"
        },
        {
          "indexed": false,
          "internalType": "uint256",
          "name": "packType",
          "type": "uint256"
        }
      ],
      "name": "LootboxBought",
      "type": "event"
    },
    {
      "anonymous": false,
      "inputs": [
        {
          "indexed": false,
          "internalType": "string",
          "name": "name",
          "type": "string"
        },
        {
          "indexed": false,
          "internalType": "uint256",
          "name": "lootboxLevel",
          "type": "uint256"
        },
        {
          "indexed": false,
          "internalType": "uint256",
          "name": "price",
          "type": "uint256"
        },
        {
          "indexed": false,
          "internalType": "string",
          "name": "metadataURI",
          "type": "string"
        }
      ],
      "name": "LootboxCreated",
      "type": "event"
    },
    {
      "anonymous": false,
      "inputs": [
        {
          "indexed": false,
          "internalType": "uint256",
          "name": "_tokenId",
          "type": "uint256"
        }
      ],
      "name": "MetadataUpdate",
      "type": "event"
    },
    {
      "anonymous": false,
      "inputs": [
        {
          "indexed": true,
          "internalType": "address",
          "name": "user",
          "type": "address"
        },
        {
          "indexed": false,
          "internalType": "uint256",
          "name": "tokenId",
          "type": "uint256"
        },
        {
          "indexed": false,
          "internalType": "string",
          "name": "metadataURI",
          "type": "string"
        }
      ],
      "name": "NFTCreated",
      "type": "event"
    },
    {
      "anonymous": false,
      "inputs": [
        {
          "indexed": false,
          "internalType": "uint256",
          "name": "newTokenId",
          "type": "uint256"
        },
        {
          "indexed": false,
          "internalType": "uint256",
          "name": "oldTokenId1",
          "type": "uint256"
        },
        {
          "indexed": false,
          "internalType": "uint256",
          "name": "oldTokenId2",
          "type": "uint256"
        },
        {
          "indexed": false,
          "internalType": "uint256",
          "name": "oldTokenId3",
          "type": "uint256"
        }
      ],
      "name": "NFTEvolved",
      "type": "event"
    },
    {
      "anonymous": false,
      "inputs": [
        {
          "indexed": true,
          "internalType": "address",
          "name": "previousOwner",
          "type": "address"
        },
        {
          "indexed": true,
          "internalType": "address",
          "name": "newOwner",
          "type": "address"
        }
      ],
      "name": "OwnershipTransferred",
      "type": "event"
    },
    {
      "anonymous": false,
      "inputs": [
        {
          "indexed": true,
          "internalType": "address",
          "name": "from",
          "type": "address"
        },
        {
          "indexed": true,
          "internalType": "address",
          "name": "to",
          "type": "address"
        },
        {
          "indexed": true,
          "internalType": "uint256",
          "name": "tokenId",
          "type": "uint256"
        }
      ],
      "name": "Transfer",
      "type": "event"
    },
    {
      "inputs": [
        {
          "internalType": "address",
          "name": "to",
          "type": "address"
        },
        {
          "internalType": "uint256",
          "name": "tokenId",
          "type": "uint256"
        }
      ],
      "name": "approve",
      "outputs": [],
      "stateMutability": "nonpayable",
      "type": "function"
    },
    {
      "inputs": [
        {
          "internalType": "address",
          "name": "owner",
          "type": "address"
        }
      ],
      "name": "balanceOf",
      "outputs": [
        {
          "internalType": "uint256",
          "name": "",
          "type": "uint256"
        }
      ],
      "stateMutability": "view",
      "type": "function",
      "constant": true
    },
    {
      "inputs": [
        {
          "internalType": "uint256",
          "name": "",
          "type": "uint256"
        },
        {
          "internalType": "uint256",
          "name": "",
          "type": "uint256"
        }
      ],
      "name": "cosmeticSets",
      "outputs": [
        {
          "internalType": "string",
          "name": "name",
          "type": "string"
        },
        {
          "internalType": "string",
          "name": "itemType",
          "type": "string"
        },
        {
          "internalType": "uint256",
          "name": "rarity",
          "type": "uint256"
        },
        {
          "internalType": "string",
          "name": "metadataURI",
          "type": "string"
        }
      ],
      "stateMutability": "view",
      "type": "function",
      "constant": true
    },
    {
      "inputs": [],
      "name": "gameContract",
      "outputs": [
        {
          "internalType": "address",
          "name": "",
          "type": "address"
        }
      ],
      "stateMutability": "view",
      "type": "function",
      "constant": true
    },
    {
      "inputs": [
        {
          "internalType": "uint256",
          "name": "tokenId",
          "type": "uint256"
        }
      ],
      "name": "getApproved",
      "outputs": [
        {
          "internalType": "address",
          "name": "",
          "type": "address"
        }
      ],
      "stateMutability": "view",
      "type": "function",
      "constant": true
    },
    {
      "inputs": [],
      "name": "gptWarsToken",
      "outputs": [
        {
          "internalType": "contract IERC20",
          "name": "",
          "type": "address"
        }
      ],
      "stateMutability": "view",
      "type": "function",
      "constant": true
    },
    {
      "inputs": [
        {
          "internalType": "address",
          "name": "owner",
          "type": "address"
        },
        {
          "internalType": "address",
          "name": "operator",
          "type": "address"
        }
      ],
      "name": "isApprovedForAll",
      "outputs": [
        {
          "internalType": "bool",
          "name": "",
          "type": "bool"
        }
      ],
      "stateMutability": "view",
      "type": "function",
      "constant": true
    },
    {
      "inputs": [
        {
          "internalType": "uint256",
          "name": "",
          "type": "uint256"
        }
      ],
      "name": "lootBoxLevel",
      "outputs": [
        {
          "internalType": "uint256",
          "name": "",
          "type": "uint256"
        }
      ],
      "stateMutability": "view",
      "type": "function",
      "constant": true
    },
    {
      "inputs": [
        {
          "internalType": "address",
          "name": "",
          "type": "address"
        }
      ],
      "name": "lootboxBalance",
      "outputs": [
        {
          "internalType": "uint256",
          "name": "",
          "type": "uint256"
        }
      ],
      "stateMutability": "view",
      "type": "function",
      "constant": true
    },
    {
      "inputs": [
        {
          "internalType": "uint256",
          "name": "",
          "type": "uint256"
        }
      ],
      "name": "lootboxTypes",
      "outputs": [
        {
          "internalType": "string",
          "name": "name",
          "type": "string"
        },
        {
          "internalType": "uint256",
          "name": "lootboxLevel",
          "type": "uint256"
        },
        {
          "internalType": "uint256",
          "name": "price",
          "type": "uint256"
        },
        {
          "internalType": "string",
          "name": "metadataURI",
          "type": "string"
        }
      ],
      "stateMutability": "view",
      "type": "function",
      "constant": true
    },
    {
      "inputs": [],
      "name": "name",
      "outputs": [
        {
          "internalType": "string",
          "name": "",
          "type": "string"
        }
      ],
      "stateMutability": "view",
      "type": "function",
      "constant": true
    },
    {
      "inputs": [],
      "name": "nextTokenId",
      "outputs": [
        {
          "internalType": "uint256",
          "name": "",
          "type": "uint256"
        }
      ],
      "stateMutability": "view",
      "type": "function",
      "constant": true
    },
    {
      "inputs": [],
      "name": "owner",
      "outputs": [
        {
          "internalType": "address",
          "name": "",
          "type": "address"
        }
      ],
      "stateMutability": "view",
      "type": "function",
      "constant": true
    },
    {
      "inputs": [
        {
          "internalType": "uint256",
          "name": "tokenId",
          "type": "uint256"
        }
      ],
      "name": "ownerOf",
      "outputs": [
        {
          "internalType": "address",
          "name": "",
          "type": "address"
        }
      ],
      "stateMutability": "view",
      "type": "function",
      "constant": true
    },
    {
      "inputs": [],
      "name": "renounceOwnership",
      "outputs": [],
      "stateMutability": "nonpayable",
      "type": "function"
    },
    {
      "inputs": [
        {
          "internalType": "address",
          "name": "from",
          "type": "address"
        },
        {
          "internalType": "address",
          "name": "to",
          "type": "address"
        },
        {
          "internalType": "uint256",
          "name": "tokenId",
          "type": "uint256"
        }
      ],
      "name": "safeTransferFrom",
      "outputs": [],
      "stateMutability": "nonpayable",
      "type": "function"
    },
    {
      "inputs": [
        {
          "internalType": "address",
          "name": "from",
          "type": "address"
        },
        {
          "internalType": "address",
          "name": "to",
          "type": "address"
        },
        {
          "internalType": "uint256",
          "name": "tokenId",
          "type": "uint256"
        },
        {
          "internalType": "bytes",
          "name": "data",
          "type": "bytes"
        }
      ],
      "name": "safeTransferFrom",
      "outputs": [],
      "stateMutability": "nonpayable",
      "type": "function"
    },
    {
      "inputs": [
        {
          "internalType": "address",
          "name": "operator",
          "type": "address"
        },
        {
          "internalType": "bool",
          "name": "approved",
          "type": "bool"
        }
      ],
      "name": "setApprovalForAll",
      "outputs": [],
      "stateMutability": "nonpayable",
      "type": "function"
    },
    {
      "inputs": [
        {
          "internalType": "bytes4",
          "name": "interfaceId",
          "type": "bytes4"
        }
      ],
      "name": "supportsInterface",
      "outputs": [
        {
          "internalType": "bool",
          "name": "",
          "type": "bool"
        }
      ],
      "stateMutability": "view",
      "type": "function",
      "constant": true
    },
    {
      "inputs": [],
      "name": "symbol",
      "outputs": [
        {
          "internalType": "string",
          "name": "",
          "type": "string"
        }
      ],
      "stateMutability": "view",
      "type": "function",
      "constant": true
    },
    {
      "inputs": [
        {
          "internalType": "uint256",
          "name": "tokenId",
          "type": "uint256"
        }
      ],
      "name": "tokenURI",
      "outputs": [
        {
          "internalType": "string",
          "name": "",
          "type": "string"
        }
      ],
      "stateMutability": "view",
      "type": "function",
      "constant": true
    },
    {
      "inputs": [
        {
          "internalType": "address",
          "name": "from",
          "type": "address"
        },
        {
          "internalType": "address",
          "name": "to",
          "type": "address"
        },
        {
          "internalType": "uint256",
          "name": "tokenId",
          "type": "uint256"
        }
      ],
      "name": "transferFrom",
      "outputs": [],
      "stateMutability": "nonpayable",
      "type": "function"
    },
    {
      "inputs": [
        {
          "internalType": "address",
          "name": "newOwner",
          "type": "address"
        }
      ],
      "name": "transferOwnership",
      "outputs": [],
      "stateMutability": "nonpayable",
      "type": "function"
    },
    {
      "inputs": [
        {
          "internalType": "address",
          "name": "",
          "type": "address"
        },
        {
          "internalType": "uint256",
          "name": "",
          "type": "uint256"
        }
      ],
      "name": "userNFTs",
      "outputs": [
        {
          "internalType": "uint256",
          "name": "",
          "type": "uint256"
        }
      ],
      "stateMutability": "view",
      "type": "function",
      "constant": true
    },
    {
      "inputs": [
        {
          "internalType": "address",
          "name": "recipient",
          "type": "address"
        },
        {
          "internalType": "string",
          "name": "metadataURI",
          "type": "string"
        }
      ],
      "name": "createNFT",
      "outputs": [],
      "stateMutability": "nonpayable",
      "type": "function"
    },
    {
      "inputs": [
        {
          "internalType": "uint256",
          "name": "quantity",
          "type": "uint256"
        },
        {
          "internalType": "uint256",
          "name": "lootboxlevel",
          "type": "uint256"
        }
      ],
      "name": "buyLootboxes",
      "outputs": [],
      "stateMutability": "nonpayable",
      "type": "function"
    },
    {
      "inputs": [
        {
          "internalType": "uint256",
          "name": "lootboxlevel",
          "type": "uint256"
        }
      ],
      "name": "openLootbox",
      "outputs": [],
      "stateMutability": "nonpayable",
      "type": "function"
    },
    {
      "inputs": [
        {
          "internalType": "string",
          "name": "name",
          "type": "string"
        }
      ],
      "name": "openOneLootbox",
      "outputs": [],
      "stateMutability": "nonpayable",
      "type": "function"
    },
    {
      "inputs": [],
      "name": "getAllLootboxes",
      "outputs": [
        {
          "components": [
            {
              "internalType": "string",
              "name": "name",
              "type": "string"
            },
            {
              "internalType": "uint256",
              "name": "lootboxLevel",
              "type": "uint256"
            },
            {
              "internalType": "uint256",
              "name": "price",
              "type": "uint256"
            },
            {
              "internalType": "string",
              "name": "metadataURI",
              "type": "string"
            }
          ],
          "internalType": "struct GPTWarsLootboxNFT.Lootbox[]",
          "name": "",
          "type": "tuple[]"
        }
      ],
      "stateMutability": "view",
      "type": "function",
      "constant": true
    },
    {
      "inputs": [
        {
          "internalType": "address",
          "name": "user",
          "type": "address"
        }
      ],
      "name": "getLootboxNFTs",
      "outputs": [
        {
          "internalType": "uint256[]",
          "name": "",
          "type": "uint256[]"
        }
      ],
      "stateMutability": "view",
      "type": "function",
      "constant": true
    },
    {
      "inputs": [
        {
          "internalType": "string",
          "name": "name",
          "type": "string"
        },
        {
          "internalType": "uint256",
          "name": "lootboxLevel",
          "type": "uint256"
        },
        {
          "internalType": "uint256",
          "name": "price",
          "type": "uint256"
        },
        {
          "internalType": "string",
          "name": "metadataURI",
          "type": "string"
        }
      ],
      "name": "createLootbox",
      "outputs": [],
      "stateMutability": "nonpayable",
      "type": "function"
    },
    {
      "inputs": [],
      "name": "withdraw",
      "outputs": [],
      "stateMutability": "nonpayable",
      "type": "function"
    },
    {
      "inputs": [
        {
          "internalType": "address",
          "name": "_gameContract",
          "type": "address"
        }
      ],
      "name": "setGameContract",
      "outputs": [],
      "stateMutability": "nonpayable",
      "type": "function"
    },
    {
      "inputs": [
        {
          "internalType": "uint256",
          "name": "tokenId",
          "type": "uint256"
        }
      ],
      "name": "approveGameContract",
      "outputs": [],
      "stateMutability": "nonpayable",
      "type": "function"
    }
  ],
  "bytecode": "0x608060405260016008556040518060c00160405280600060ff168152602001600160ff168152602001600260ff168152602001600360ff168152602001600460ff168152602001600560ff16815250600b9060066200006092919062000e27565b503480156200006e57600080fd5b506040516200685538038062006855833981810160405281019062000094919062000f8b565b6040518060400160405280600f81526020017f47505457617273204c6f6f74626f7800000000000000000000000000000000008152506040518060400160405280600781526020017f4750544c4e46540000000000000000000000000000000000000000000000000081525081600090805190602001906200011892919062000e71565b5080600190805190602001906200013192919062000e71565b5050506200015462000148620001bc60201b60201c565b620001c460201b60201c565b80600960006101000a81548173ffffffffffffffffffffffffffffffffffffffff021916908373ffffffffffffffffffffffffffffffffffffffff160217905550620001a56200028a60201b60201c565b620001b5620007af60201b60201c565b5062001021565b600033905090565b6000600760009054906101000a900473ffffffffffffffffffffffffffffffffffffffff16905081600760006101000a81548173ffffffffffffffffffffffffffffffffffffffff021916908373ffffffffffffffffffffffffffffffffffffffff1602179055508173ffffffffffffffffffffffffffffffffffffffff168173ffffffffffffffffffffffffffffffffffffffff167f8be0079c531659141344cd1fd0a4f28419497f9722a3daafe3b4186f6b6457e060405160405180910390a35050565b60405180608001604052806040518060400160405280600881526020017f4a756e6b20426f78000000000000000000000000000000000000000000000000815250815260200160008152602001611388815260200160405180606001604052806035815260200162006820603591398152506013600080815260200190815260200160002060008201518160000190805190602001906200032d92919062000e71565b50602082015181600101556040820151816002015560608201518160030190805190602001906200036092919062000e71565b5090505060405180608001604052806040518060400160405280600981526020017f436865617020426f780000000000000000000000000000000000000000000000815250815260200160018152602001613a988152602001604051806060016040528060358152602001620067b660359139815250601360006001815260200190815260200160002060008201518160000190805190602001906200040892919062000e71565b50602082015181600101556040820151816002015560608201518160030190805190602001906200043b92919062000e71565b5090505060405180608001604052806040518060400160405280600881526020017f476f6f6420426f780000000000000000000000000000000000000000000000008152508152602001600281526020016175308152602001604051806060016040528060358152602001620066e26035913981525060136000600281526020019081526020016000206000820151816000019080519060200190620004e392919062000e71565b50602082015181600101556040820151816002015560608201518160030190805190602001906200051692919062000e71565b5090505060405180608001604052806040518060400160405280600981526020017f477265617420426f78000000000000000000000000000000000000000000000081525081526020016003815260200161c3508152602001604051806060016040528060358152602001620067eb6035913981525060136000600381526020019081526020016000206000820151816000019080519060200190620005be92919062000e71565b5060208201518160010155604082015181600201556060820151816003019080519060200190620005f192919062000e71565b5090505060405180608001604052806040518060400160405280600881526020017f4570696320426f780000000000000000000000000000000000000000000000008152508152602001600481526020016201388081526020016040518060600160405280603581526020016200660e60359139815250601360006004815260200190815260200160002060008201518160000190805190602001906200069a92919062000e71565b5060208201518160010155604082015181600201556060820151816003019080519060200190620006cd92919062000e71565b5090505060405180608001604052806040518060400160405280600d81526020017f4c6567656e6461727920426f7800000000000000000000000000000000000000815250815260200160058152602001620249f081526020016040518060600160405280603581526020016200667860359139815250601360006005815260200190815260200160002060008201518160000190805190602001906200077692919062000e71565b5060208201518160010155604082015181600201556060820151816003019080519060200190620007a992919062000e71565b50905050565b6011600080815260200190815260200160002060405180608001604052806040518060400160405280600d81526020017f41737361756c74205669736f720000000000000000000000000000000000000081525081526020016040518060400160405280600381526020017f4861740000000000000000000000000000000000000000000000000000000000815250815260200160008152602001604051806060016040528060358152602001620066ad6035913981525090806001815401808255809150506001900390600052602060002090600402016000909190919091506000820151816000019080519060200190620008ae92919062000e71565b506020820151816001019080519060200190620008cd92919062000e71565b50604082015181600201556060820151816003019080519060200190620008f692919062000e71565b505050601160006005815260200190815260200160002060405180608001604052806040518060400160405280600d81526020017f43616d6f20536e61706261636b0000000000000000000000000000000000000081525081526020016040518060400160405280600381526020017f4861740000000000000000000000000000000000000000000000000000000000815250815260200160058152602001604051806060016040528060358152602001620066436035913981525090806001815401808255809150506001900390600052602060002090600402016000909190919091506000820151816000019080519060200190620009f992919062000e71565b50602082015181600101908051906020019062000a1892919062000e71565b5060408201518160020155606082015181600301908051906020019062000a4192919062000e71565b505050601160006001815260200190815260200160002060405180608001604052806040518060400160405280600d81526020017f436f6d626174204665646f72610000000000000000000000000000000000000081525081526020016040518060400160405280600381526020017f486174000000000000000000000000000000000000000000000000000000000081525081526020016001815260200160405180606001604052806035815260200162006717603591398152509080600181540180825580915050600190039060005260206000209060040201600090919091909150600082015181600001908051906020019062000b4492919062000e71565b50602082015181600101908051906020019062000b6392919062000e71565b5060408201518160020155606082015181600301908051906020019062000b8c92919062000e71565b505050601160006002815260200190815260200160002060405180608001604052806040518060400160405280600981526020017f447573747920436170000000000000000000000000000000000000000000000081525081526020016040518060400160405280600381526020017f486174000000000000000000000000000000000000000000000000000000000081525081526020016002815260200160405180606001604052806035815260200162006781603591398152509080600181540180825580915050600190039060005260206000209060040201600090919091909150600082015181600001908051906020019062000c8f92919062000e71565b50602082015181600101908051906020019062000cae92919062000e71565b5060408201518160020155606082015181600301908051906020019062000cd792919062000e71565b505050601160006003815260200190815260200160002060405180608001604052806040518060400160405280601281526020017f656c6974652d6d61726b736d616e2d636170000000000000000000000000000081525081526020016040518060400160405280600381526020017f48617400000000000000000000000000000000000000000000000000000000008152508152602001600381526020016040518060600160405280603581526020016200674c603591398152509080600181540180825580915050600190039060005260206000209060040201600090919091909150600082015181600001908051906020019062000dda92919062000e71565b50602082015181600101908051906020019062000df992919062000e71565b5060408201518160020155606082015181600301908051906020019062000e2292919062000e71565b505050565b826006810192821562000e5e579160200282015b8281111562000e5d578251829060ff1690559160200191906001019062000e3b565b5b50905062000e6d919062000f02565b5090565b82805462000e7f9062000fec565b90600052602060002090601f01602090048101928262000ea3576000855562000eef565b82601f1062000ebe57805160ff191683800117855562000eef565b8280016001018555821562000eef579182015b8281111562000eee57825182559160200191906001019062000ed1565b5b50905062000efe919062000f02565b5090565b5b8082111562000f1d57600081600090555060010162000f03565b5090565b600080fd5b600073ffffffffffffffffffffffffffffffffffffffff82169050919050565b600062000f538262000f26565b9050919050565b62000f658162000f46565b811462000f7157600080fd5b50565b60008151905062000f858162000f5a565b92915050565b60006020828403121562000fa45762000fa362000f21565b5b600062000fb48482850162000f74565b91505092915050565b7f4e487b7100000000000000000000000000000000000000000000000000000000600052602260045260246000fd5b600060028204905060018216806200100557607f821691505b6020821081036200101b576200101a62000fbd565b5b50919050565b6155dd80620010316000396000f3fe608060405234801561001057600080fd5b50600436106102065760003560e01c80636d5f38f81161011a578063a5614033116100ad578063d3f330091161007c578063d3f3300914610601578063e1cca2131461061f578063e985e9c51461063b578063edc21f8d1461066b578063f2fde38b1461068757610206565b8063a56140331461057b578063b88d4fde14610597578063c87b56dd146105b3578063cb205f4b146105e357610206565b80637ff48190116100e95780637ff48190146105075780638da5cb5b1461052357806395d89b4114610541578063a22cb4651461055f57610206565b80636d5f38f81461049357806370a08231146104af578063715018a6146104df57806375794a3c146104e957610206565b8063291c73c31161019d57806342842e0e1161016c57806342842e0e146103b457806342ba67fd146103d0578063465361e8146104005780634bff21bd146104335780636352211e1461046357610206565b8063291c73c31461032b5780633ccfd60b1461035b5780633e6187fa14610365578063405ebd4d1461039857610206565b8063095ea7b3116101d9578063095ea7b3146102b95780631ce9f8fa146102d55780632215beb8146102f357806323b872dd1461030f57610206565b806301ffc9a71461020b57806306fdde031461023b5780630700b6f214610259578063081812fc14610289575b600080fd5b61022560048036038101906102209190613a9e565b6106a3565b6040516102329190613ae6565b60405180910390f35b610243610704565b6040516102509190613b9a565b60405180910390f35b610273600480360381019061026e9190613bf2565b610796565b6040516102809190613c2e565b60405180910390f35b6102a3600480360381019061029e9190613bf2565b6107b1565b6040516102b09190613c8a565b60405180910390f35b6102d360048036038101906102ce9190613cd1565b6107f7565b005b6102dd61090e565b6040516102ea9190613e96565b60405180910390f35b61030d60048036038101906103089190613fed565b610b04565b005b61032960048036038101906103249190614036565b610d4d565b005b61034560048036038101906103409190613cd1565b610dad565b6040516103529190613c2e565b60405180910390f35b610363610dde565b005b61037f600480360381019061037a9190614089565b610f6f565b60405161038f94939291906140c9565b60405180910390f35b6103b260048036038101906103ad9190614123565b611154565b005b6103ce60048036038101906103c99190614036565b6111a0565b005b6103ea60048036038101906103e59190614123565b6111c0565b6040516103f791906141ff565b60405180910390f35b61041a60048036038101906104159190613bf2565b611257565b60405161042a9493929190614221565b60405180910390f35b61044d60048036038101906104489190614123565b611397565b60405161045a9190613c2e565b60405180910390f35b61047d60048036038101906104789190613bf2565b6113af565b60405161048a9190613c8a565b60405180910390f35b6104ad60048036038101906104a89190613bf2565b611435565b005b6104c960048036038101906104c49190614123565b6114da565b6040516104d69190613c2e565b60405180910390f35b6104e7611591565b005b6104f16115a5565b6040516104fe9190613c2e565b60405180910390f35b610521600480360381019061051c9190613bf2565b6115ab565b005b61052b6117a3565b6040516105389190613c8a565b60405180910390f35b6105496117cd565b6040516105569190613b9a565b60405180910390f35b610579600480360381019061057491906142a0565b61185f565b005b610595600480360381019061059091906142e0565b611875565b005b6105b160048036038101906105ac91906143dd565b61196b565b005b6105cd60048036038101906105c89190613bf2565b6119cd565b6040516105da9190613b9a565b60405180910390f35b6105eb611adf565b6040516105f891906144bf565b60405180910390f35b610609611b05565b6040516106169190613c8a565b60405180910390f35b61063960048036038101906106349190614089565b611b2b565b005b610655600480360381019061065091906144da565b611cdd565b6040516106629190613ae6565b60405180910390f35b6106856004803603810190610680919061451a565b611d71565b005b6106a1600480360381019061069c9190614123565b611e41565b005b6000634906490660e01b7bffffffffffffffffffffffffffffffffffffffffffffffffffffffff1916827bffffffffffffffffffffffffffffffffffffffffffffffffffffffff191614806106fd57506106fc82611ec4565b5b9050919050565b606060008054610713906145e8565b80601f016020809104026020016040519081016040528092919081815260200182805461073f906145e8565b801561078c5780601f106107615761010080835404028352916020019161078c565b820191906000526020600020905b81548152906001019060200180831161076f57829003601f168201915b5050505050905090565b600b81600681106107a657600080fd5b016000915090505481565b60006107bc82611fa6565b6004600083815260200190815260200160002060009054906101000a900473ffffffffffffffffffffffffffffffffffffffff169050919050565b6000610802826113af565b90508073ffffffffffffffffffffffffffffffffffffffff168373ffffffffffffffffffffffffffffffffffffffff1603610872576040517f08c379a00000000000000000000000000000000000000000000000000000000081526004016108699061468b565b60405180910390fd5b8073ffffffffffffffffffffffffffffffffffffffff16610891611ff1565b73ffffffffffffffffffffffffffffffffffffffff1614806108c057506108bf816108ba611ff1565b611cdd565b5b6108ff576040517f08c379a00000000000000000000000000000000000000000000000000000000081526004016108f69061471d565b60405180910390fd5b6109098383611ff9565b505050565b60606000600667ffffffffffffffff81111561092d5761092c613ec2565b5b60405190808252806020026020018201604052801561096657816020015b61095361391d565b81526020019060019003908161094b5790505b50905060005b6006811015610afc57601360008281526020019081526020016000206040518060800160405290816000820180546109a3906145e8565b80601f01602080910402602001604051908101604052809291908181526020018280546109cf906145e8565b8015610a1c5780601f106109f157610100808354040283529160200191610a1c565b820191906000526020600020905b8154815290600101906020018083116109ff57829003601f168201915b505050505081526020016001820154815260200160028201548152602001600382018054610a49906145e8565b80601f0160208091040260200160405190810160405280929190818152602001828054610a75906145e8565b8015610ac25780601f10610a9757610100808354040283529160200191610ac2565b820191906000526020600020905b815481529060010190602001808311610aa557829003601f168201915b505050505081525050828281518110610ade57610add61473d565b5b60200260200101819052508080610af49061479b565b91505061096c565b508091505090565b6000601260003373ffffffffffffffffffffffffffffffffffffffff1673ffffffffffffffffffffffffffffffffffffffff1681526020019081526020016000205411610b86576040517f08c379a0000000000000000000000000000000000000000000000000000000008152600401610b7d9061482f565b60405180910390fd5b6000610b91826120b2565b905060008111610bd6576040517f08c379a0000000000000000000000000000000000000000000000000000000008152600401610bcd9061489b565b60405180910390fd5b601260003373ffffffffffffffffffffffffffffffffffffffff1673ffffffffffffffffffffffffffffffffffffffff1681526020019081526020016000206000815480929190610c26906148bb565b91905055506000610c3682612138565b90506000811115610d48576000610c4c82612759565b9050610c5a33600854612a7d565b610c6a6008548260600151612c9a565b601460003373ffffffffffffffffffffffffffffffffffffffff1673ffffffffffffffffffffffffffffffffffffffff16815260200190815260200160002060085490806001815401808255809150506001900390600052602060002001600090919091909150553373ffffffffffffffffffffffffffffffffffffffff167fd3542f075963e94c3ffdd04f31942ac7e624fec11eb8065fd2852206dcee262760085483600001518460600151604051610d26939291906148e4565b60405180910390a260086000815480929190610d419061479b565b9190505550505b505050565b610d5e610d58611ff1565b82612d45565b610d9d576040517f08c379a0000000000000000000000000000000000000000000000000000000008152600401610d949061499b565b60405180910390fd5b610da8838383612dda565b505050565b60146020528160005260406000208181548110610dc957600080fd5b90600052602060002001600091509150505481565b610de66130d3565b6000600960009054906101000a900473ffffffffffffffffffffffffffffffffffffffff1673ffffffffffffffffffffffffffffffffffffffff166370a08231306040518263ffffffff1660e01b8152600401610e439190613c8a565b602060405180830381865afa158015610e60573d6000803e3d6000fd5b505050506040513d601f19601f82011682018060405250810190610e8491906149d0565b9050600960009054906101000a900473ffffffffffffffffffffffffffffffffffffffff1673ffffffffffffffffffffffffffffffffffffffff1663a9059cbb610ecc6117a3565b836040518363ffffffff1660e01b8152600401610eea9291906149fd565b6020604051808303816000875af1158015610f09573d6000803e3d6000fd5b505050506040513d601f19601f82011682018060405250810190610f2d9190614a3b565b610f6c576040517f08c379a0000000000000000000000000000000000000000000000000000000008152600401610f6390614ab4565b60405180910390fd5b50565b60116020528160005260406000208181548110610f8b57600080fd5b906000526020600020906004020160009150915050806000018054610faf906145e8565b80601f0160208091040260200160405190810160405280929190818152602001828054610fdb906145e8565b80156110285780601f10610ffd57610100808354040283529160200191611028565b820191906000526020600020905b81548152906001019060200180831161100b57829003601f168201915b50505050509080600101805461103d906145e8565b80601f0160208091040260200160405190810160405280929190818152602001828054611069906145e8565b80156110b65780601f1061108b576101008083540402835291602001916110b6565b820191906000526020600020905b81548152906001019060200180831161109957829003601f168201915b5050505050908060020154908060030180546110d1906145e8565b80601f01602080910402602001604051908101604052809291908181526020018280546110fd906145e8565b801561114a5780601f1061111f5761010080835404028352916020019161114a565b820191906000526020600020905b81548152906001019060200180831161112d57829003601f168201915b5050505050905084565b61115c6130d3565b80600a60006101000a81548173ffffffffffffffffffffffffffffffffffffffff021916908373ffffffffffffffffffffffffffffffffffffffff16021790555050565b6111bb8383836040518060200160405280600081525061196b565b505050565b6060601460008373ffffffffffffffffffffffffffffffffffffffff1673ffffffffffffffffffffffffffffffffffffffff16815260200190815260200160002080548060200260200160405190810160405280929190818152602001828054801561124b57602002820191906000526020600020905b815481526020019060010190808311611237575b50505050509050919050565b601360205280600052604060002060009150905080600001805461127a906145e8565b80601f01602080910402602001604051908101604052809291908181526020018280546112a6906145e8565b80156112f35780601f106112c8576101008083540402835291602001916112f3565b820191906000526020600020905b8154815290600101906020018083116112d657829003601f168201915b505050505090806001015490806002015490806003018054611314906145e8565b80601f0160208091040260200160405190810160405280929190818152602001828054611340906145e8565b801561138d5780601f106113625761010080835404028352916020019161138d565b820191906000526020600020905b81548152906001019060200180831161137057829003601f168201915b5050505050905084565b60126020528060005260406000206000915090505481565b6000806113bb83613151565b9050600073ffffffffffffffffffffffffffffffffffffffff168173ffffffffffffffffffffffffffffffffffffffff160361142c576040517f08c379a000000000000000000000000000000000000000000000000000000000815260040161142390614b20565b60405180910390fd5b80915050919050565b3373ffffffffffffffffffffffffffffffffffffffff16611455826113af565b73ffffffffffffffffffffffffffffffffffffffff16146114ab576040517f08c379a00000000000000000000000000000000000000000000000000000000081526004016114a290614b8c565b60405180910390fd5b6114d7600a60009054906101000a900473ffffffffffffffffffffffffffffffffffffffff16826107f7565b50565b60008073ffffffffffffffffffffffffffffffffffffffff168273ffffffffffffffffffffffffffffffffffffffff160361154a576040517f08c379a000000000000000000000000000000000000000000000000000000000815260040161154190614c1e565b60405180910390fd5b600360008373ffffffffffffffffffffffffffffffffffffffff1673ffffffffffffffffffffffffffffffffffffffff168152602001908152602001600020549050919050565b6115996130d3565b6115a3600061318e565b565b60085481565b6000601260003373ffffffffffffffffffffffffffffffffffffffff1673ffffffffffffffffffffffffffffffffffffffff168152602001908152602001600020541161162d576040517f08c379a00000000000000000000000000000000000000000000000000000000081526004016116249061482f565b60405180910390fd5b601260003373ffffffffffffffffffffffffffffffffffffffff1673ffffffffffffffffffffffffffffffffffffffff168152602001908152602001600020600081548092919061167d906148bb565b9190505550600061168d82612138565b9050600081111561179f5760006116a382612759565b90506116b133600854612a7d565b6116c16008548260600151612c9a565b601460003373ffffffffffffffffffffffffffffffffffffffff1673ffffffffffffffffffffffffffffffffffffffff16815260200190815260200160002060085490806001815401808255809150506001900390600052602060002001600090919091909150553373ffffffffffffffffffffffffffffffffffffffff167fd3542f075963e94c3ffdd04f31942ac7e624fec11eb8065fd2852206dcee26276008548360000151846060015160405161177d939291906148e4565b60405180910390a2600860008154809291906117989061479b565b9190505550505b5050565b6000600760009054906101000a900473ffffffffffffffffffffffffffffffffffffffff16905090565b6060600180546117dc906145e8565b80601f0160208091040260200160405190810160405280929190818152602001828054611808906145e8565b80156118555780601f1061182a57610100808354040283529160200191611855565b820191906000526020600020905b81548152906001019060200180831161183857829003601f168201915b5050505050905090565b61187161186a611ff1565b8383613254565b5050565b61187d6130d3565b61188982600854612a7d565b61189560085482612c9a565b601460008373ffffffffffffffffffffffffffffffffffffffff1673ffffffffffffffffffffffffffffffffffffffff16815260200190815260200160002060085490806001815401808255809150506001900390600052602060002001600090919091909150558173ffffffffffffffffffffffffffffffffffffffff167f403f45e064e1472b925888509d0e5164b4642f3064c519d162e3b9261c204adc60085483604051611947929190614c3e565b60405180910390a2600860008154809291906119629061479b565b91905055505050565b61197c611976611ff1565b83612d45565b6119bb576040517f08c379a00000000000000000000000000000000000000000000000000000000081526004016119b29061499b565b60405180910390fd5b6119c7848484846133c0565b50505050565b60606119d882611fa6565b60006006600084815260200190815260200160002080546119f8906145e8565b80601f0160208091040260200160405190810160405280929190818152602001828054611a24906145e8565b8015611a715780601f10611a4657610100808354040283529160200191611a71565b820191906000526020600020905b815481529060010190602001808311611a5457829003601f168201915b505050505090506000611a8261341c565b90506000815103611a97578192505050611ada565b600082511115611acc578082604051602001611ab4929190614caa565b60405160208183030381529060405292505050611ada565b611ad584613433565b925050505b919050565b600960009054906101000a900473ffffffffffffffffffffffffffffffffffffffff1681565b600a60009054906101000a900473ffffffffffffffffffffffffffffffffffffffff1681565b600060136000838152602001908152602001600020600201549050600960009054906101000a900473ffffffffffffffffffffffffffffffffffffffff1673ffffffffffffffffffffffffffffffffffffffff166323b872dd33308685611b929190614cce565b6040518463ffffffff1660e01b8152600401611bb093929190614d28565b6020604051808303816000875af1158015611bcf573d6000803e3d6000fd5b505050506040513d601f19601f82011682018060405250810190611bf39190614a3b565b611c32576040517f08c379a0000000000000000000000000000000000000000000000000000000008152600401611c2990614dab565b60405180910390fd5b82601260003373ffffffffffffffffffffffffffffffffffffffff1673ffffffffffffffffffffffffffffffffffffffff1681526020019081526020016000206000828254611c819190614dcb565b925050819055503373ffffffffffffffffffffffffffffffffffffffff167f857b1aa506f761d739c25b203497f976962058f97f1e5238fbbb3fa3d32bd2208484604051611cd0929190614e21565b60405180910390a2505050565b6000600560008473ffffffffffffffffffffffffffffffffffffffff1673ffffffffffffffffffffffffffffffffffffffff16815260200190815260200160002060008373ffffffffffffffffffffffffffffffffffffffff1673ffffffffffffffffffffffffffffffffffffffff16815260200190815260200160002060009054906101000a900460ff16905092915050565b611d796130d3565b604051806080016040528085815260200184815260200183815260200182815250601360008581526020019081526020016000206000820151816000019080519060200190611dc9929190613945565b5060208201518160010155604082015181600201556060820151816003019080519060200190611dfa929190613945565b509050507f8affa758f84d81ff6b0465542989f9f31f6b7da0d2064b71fe35d50249fcbdc384848484604051611e339493929190614221565b60405180910390a150505050565b611e496130d3565b600073ffffffffffffffffffffffffffffffffffffffff168173ffffffffffffffffffffffffffffffffffffffff1603611eb8576040517f08c379a0000000000000000000000000000000000000000000000000000000008152600401611eaf90614ebc565b60405180910390fd5b611ec18161318e565b50565b60007f80ac58cd000000000000000000000000000000000000000000000000000000007bffffffffffffffffffffffffffffffffffffffffffffffffffffffff1916827bffffffffffffffffffffffffffffffffffffffffffffffffffffffff19161480611f8f57507f5b5e139f000000000000000000000000000000000000000000000000000000007bffffffffffffffffffffffffffffffffffffffffffffffffffffffff1916827bffffffffffffffffffffffffffffffffffffffffffffffffffffffff1916145b80611f9f5750611f9e8261349b565b5b9050919050565b611faf81613505565b611fee576040517f08c379a0000000000000000000000000000000000000000000000000000000008152600401611fe590614b20565b60405180910390fd5b50565b600033905090565b816004600083815260200190815260200160002060006101000a81548173ffffffffffffffffffffffffffffffffffffffff021916908373ffffffffffffffffffffffffffffffffffffffff160217905550808273ffffffffffffffffffffffffffffffffffffffff1661206c836113af565b73ffffffffffffffffffffffffffffffffffffffff167f8c5be1e5ebec7d5bd14f71427d1e84f3dd0314c0f7b2291e5b200ac8c7c3b92560405160405180910390a45050565b600080600090505b600681101561212d578280519060200120601360008381526020019081526020016000206000016040516120ee9190614f7b565b60405180910390200361211a576013600082815260200190815260200160002060010154915050612133565b80806121259061479b565b9150506120ba565b50600090505b919050565b6000806103e8423360085460405160200161215593929190614ffb565b6040516020818303038152906040528051906020012060001c6121789190615067565b90506121826139cb565b6000840361226f576102bc816000600781106121a1576121a061473d565b5b602002018181525050610384816001600781106121c1576121c061473d565b5b6020020181815250506103ca816002600781106121e1576121e061473d565b5b6020020181815250506103e7816003600781106122015761220061473d565b5b6020020181815250506103e8816004600781106122215761222061473d565b5b6020020181815250506103e8816005600781106122415761224061473d565b5b6020020181815250506103e8816006600781106122615761226061473d565b5b602002018181525050612703565b6001840361235c5761012c8160006007811061228e5761228d61473d565b5b6020020181815250506102bc816001600781106122ae576122ad61473d565b5b6020020181815250506103a2816002600781106122ce576122cd61473d565b5b6020020181815250506103de816003600781106122ee576122ed61473d565b5b6020020181815250506103e88160046007811061230e5761230d61473d565b5b6020020181815250506103e88160056007811061232e5761232d61473d565b5b6020020181815250506103e88160066007811061234e5761234d61473d565b5b602002018181525050612702565b6002840361244757600f8160006007811061237a5761237961473d565b5b6020020181815250506073816001600781106123995761239861473d565b5b602002018181525050610203816002600781106123b9576123b861473d565b5b60200201818152505061032f816003600781106123d9576123d861473d565b5b6020020181815250506103ac816004600781106123f9576123f861473d565b5b6020020181815250506103de816005600781106124195761241861473d565b5b6020020181815250506103e8816006600781106124395761243861473d565b5b602002018181525050612701565b60038403612531576000816000600781106124655761246461473d565b5b6020020181815250506014816001600781106124845761248361473d565b5b6020020181815250506064816002600781106124a3576124a261473d565b5b6020020181815250506101d6816003600781106124c3576124c261473d565b5b602002018181525050610366816004600781106124e3576124e261473d565b5b6020020181815250506103ca816005600781106125035761250261473d565b5b6020020181815250506103e8816006600781106125235761252261473d565b5b602002018181525050612700565b6004840361261a5760008160006007811061254f5761254e61473d565b5b60200201818152505060008160016007811061256e5761256d61473d565b5b602002018181525050600a8160026007811061258d5761258c61473d565b5b6020020181815250506050816003600781106125ac576125ab61473d565b5b6020020181815250506102a8816004600781106125cc576125cb61473d565b5b602002018181525050610384816005600781106125ec576125eb61473d565b5b6020020181815250506103e88160066007811061260c5761260b61473d565b5b6020020181815250506126ff565b600584036126fe576000816000600781106126385761263761473d565b5b6020020181815250506000816001600781106126575761265661473d565b5b6020020181815250506000816002600781106126765761267561473d565b5b6020020181815250506014816003600781106126955761269461473d565b5b6020020181815250506064816004600781106126b4576126b361473d565b5b6020020181815250506102d0816005600781106126d4576126d361473d565b5b6020020181815250506103e8816006600781106126f4576126f361473d565b5b6020020181815250505b5b5b5b5b5b60005b600781101561274c578181600781106127225761272161473d565b5b602002015183101561273957809350505050612754565b80806127449061479b565b915050612706565b506000925050505b919050565b6127616139ed565b60006103e8423360085460405160200161277d93929190614ffb565b6040516020818303038152906040528051906020012060001c6127a09190615067565b905060008060116000868152602001908152602001600020805480602002602001604051908101604052809291908181526020016000905b828210156129ca578382906000526020600020906004020160405180608001604052908160008201805461280b906145e8565b80601f0160208091040260200160405190810160405280929190818152602001828054612837906145e8565b80156128845780601f1061285957610100808354040283529160200191612884565b820191906000526020600020905b81548152906001019060200180831161286757829003601f168201915b5050505050815260200160018201805461289d906145e8565b80601f01602080910402602001604051908101604052809291908181526020018280546128c9906145e8565b80156129165780601f106128eb57610100808354040283529160200191612916565b820191906000526020600020905b8154815290600101906020018083116128f957829003601f168201915b5050505050815260200160028201548152602001600382018054612939906145e8565b80601f0160208091040260200160405190810160405280929190818152602001828054612965906145e8565b80156129b25780601f10612987576101008083540402835291602001916129b2565b820191906000526020600020905b81548152906001019060200180831161299557829003601f168201915b505050505081525050815260200190600101906127d8565b50505050905060005b8151811015612a49578181815181106129ef576129ee61473d565b5b60200260200101516040015183612a069190614dcb565b925082841015612a3657818181518110612a2357612a2261473d565b5b6020026020010151945050505050612a78565b8080612a419061479b565b9150506129d3565b508060018251612a599190615098565b81518110612a6a57612a6961473d565b5b602002602001015193505050505b919050565b600073ffffffffffffffffffffffffffffffffffffffff168273ffffffffffffffffffffffffffffffffffffffff1603612aec576040517f08c379a0000000000000000000000000000000000000000000000000000000008152600401612ae390615118565b60405180910390fd5b612af581613505565b15612b35576040517f08c379a0000000000000000000000000000000000000000000000000000000008152600401612b2c90615184565b60405180910390fd5b612b43600083836001613546565b612b4c81613505565b15612b8c576040517f08c379a0000000000000000000000000000000000000000000000000000000008152600401612b8390615184565b60405180910390fd5b6001600360008473ffffffffffffffffffffffffffffffffffffffff1673ffffffffffffffffffffffffffffffffffffffff16815260200190815260200160002060008282540192505081905550816002600083815260200190815260200160002060006101000a81548173ffffffffffffffffffffffffffffffffffffffff021916908373ffffffffffffffffffffffffffffffffffffffff160217905550808273ffffffffffffffffffffffffffffffffffffffff16600073ffffffffffffffffffffffffffffffffffffffff167fddf252ad1be2c89b69c2b068fc378daa952ba7f163c4a11628f55a4df523b3ef60405160405180910390a4612c9660008383600161354c565b5050565b612ca382613505565b612ce2576040517f08c379a0000000000000000000000000000000000000000000000000000000008152600401612cd990615216565b60405180910390fd5b80600660008481526020019081526020016000209080519060200190612d09929190613945565b507ff8e1a15aba9398e019f0b49df1a4fde98ee17ae345cb5f6b5e2c27f5033e8ce782604051612d399190613c2e565b60405180910390a15050565b600080612d51836113af565b90508073ffffffffffffffffffffffffffffffffffffffff168473ffffffffffffffffffffffffffffffffffffffff161480612d935750612d928185611cdd565b5b80612dd157508373ffffffffffffffffffffffffffffffffffffffff16612db9846107b1565b73ffffffffffffffffffffffffffffffffffffffff16145b91505092915050565b8273ffffffffffffffffffffffffffffffffffffffff16612dfa826113af565b73ffffffffffffffffffffffffffffffffffffffff1614612e50576040517f08c379a0000000000000000000000000000000000000000000000000000000008152600401612e47906152a8565b60405180910390fd5b600073ffffffffffffffffffffffffffffffffffffffff168273ffffffffffffffffffffffffffffffffffffffff1603612ebf576040517f08c379a0000000000000000000000000000000000000000000000000000000008152600401612eb69061533a565b60405180910390fd5b612ecc8383836001613546565b8273ffffffffffffffffffffffffffffffffffffffff16612eec826113af565b73ffffffffffffffffffffffffffffffffffffffff1614612f42576040517f08c379a0000000000000000000000000000000000000000000000000000000008152600401612f39906152a8565b60405180910390fd5b6004600082815260200190815260200160002060006101000a81549073ffffffffffffffffffffffffffffffffffffffff02191690556001600360008573ffffffffffffffffffffffffffffffffffffffff1673ffffffffffffffffffffffffffffffffffffffff168152602001908152602001600020600082825403925050819055506001600360008473ffffffffffffffffffffffffffffffffffffffff1673ffffffffffffffffffffffffffffffffffffffff16815260200190815260200160002060008282540192505081905550816002600083815260200190815260200160002060006101000a81548173ffffffffffffffffffffffffffffffffffffffff021916908373ffffffffffffffffffffffffffffffffffffffff160217905550808273ffffffffffffffffffffffffffffffffffffffff168473ffffffffffffffffffffffffffffffffffffffff167fddf252ad1be2c89b69c2b068fc378daa952ba7f163c4a11628f55a4df523b3ef60405160405180910390a46130ce838383600161354c565b505050565b6130db611ff1565b73ffffffffffffffffffffffffffffffffffffffff166130f96117a3565b73ffffffffffffffffffffffffffffffffffffffff161461314f576040517f08c379a0000000000000000000000000000000000000000000000000000000008152600401613146906153a6565b60405180910390fd5b565b60006002600083815260200190815260200160002060009054906101000a900473ffffffffffffffffffffffffffffffffffffffff169050919050565b6000600760009054906101000a900473ffffffffffffffffffffffffffffffffffffffff16905081600760006101000a81548173ffffffffffffffffffffffffffffffffffffffff021916908373ffffffffffffffffffffffffffffffffffffffff1602179055508173ffffffffffffffffffffffffffffffffffffffff168173ffffffffffffffffffffffffffffffffffffffff167f8be0079c531659141344cd1fd0a4f28419497f9722a3daafe3b4186f6b6457e060405160405180910390a35050565b8173ffffffffffffffffffffffffffffffffffffffff168373ffffffffffffffffffffffffffffffffffffffff16036132c2576040517f08c379a00000000000000000000000000000000000000000000000000000000081526004016132b990615412565b60405180910390fd5b80600560008573ffffffffffffffffffffffffffffffffffffffff1673ffffffffffffffffffffffffffffffffffffffff16815260200190815260200160002060008473ffffffffffffffffffffffffffffffffffffffff1673ffffffffffffffffffffffffffffffffffffffff16815260200190815260200160002060006101000a81548160ff0219169083151502179055508173ffffffffffffffffffffffffffffffffffffffff168373ffffffffffffffffffffffffffffffffffffffff167f17307eab39ab6107e8899845ad3d59bd9653f200f220920489ca2b5937696c31836040516133b39190613ae6565b60405180910390a3505050565b6133cb848484612dda565b6133d784848484613552565b613416576040517f08c379a000000000000000000000000000000000000000000000000000000000815260040161340d906154a4565b60405180910390fd5b50505050565b606060405180602001604052806000815250905090565b606061343e82611fa6565b600061344861341c565b905060008151116134685760405180602001604052806000815250613493565b80613472846136d9565b604051602001613483929190614caa565b6040516020818303038152906040525b915050919050565b60007f01ffc9a7000000000000000000000000000000000000000000000000000000007bffffffffffffffffffffffffffffffffffffffffffffffffffffffff1916827bffffffffffffffffffffffffffffffffffffffffffffffffffffffff1916149050919050565b60008073ffffffffffffffffffffffffffffffffffffffff1661352783613151565b73ffffffffffffffffffffffffffffffffffffffff1614159050919050565b50505050565b50505050565b60006135738473ffffffffffffffffffffffffffffffffffffffff166137a7565b156136cc578373ffffffffffffffffffffffffffffffffffffffff1663150b7a0261359c611ff1565b8786866040518563ffffffff1660e01b81526004016135be9493929190615519565b6020604051808303816000875af19250505080156135fa57506040513d601f19601f820116820180604052508101906135f7919061557a565b60015b61367c573d806000811461362a576040519150601f19603f3d011682016040523d82523d6000602084013e61362f565b606091505b506000815103613674576040517f08c379a000000000000000000000000000000000000000000000000000000000815260040161366b906154a4565b60405180910390fd5b805181602001fd5b63150b7a0260e01b7bffffffffffffffffffffffffffffffffffffffffffffffffffffffff1916817bffffffffffffffffffffffffffffffffffffffffffffffffffffffff1916149150506136d1565b600190505b949350505050565b6060600060016136e8846137ca565b01905060008167ffffffffffffffff81111561370757613706613ec2565b5b6040519080825280601f01601f1916602001820160405280156137395781602001600182028036833780820191505090505b509050600082602001820190505b60011561379c578080600190039150507f3031323334353637383961626364656600000000000000000000000000000000600a86061a8153600a85816137905761378f615038565b5b04945060008503613747575b819350505050919050565b6000808273ffffffffffffffffffffffffffffffffffffffff163b119050919050565b600080600090507a184f03e93ff9f4daa797ed6e38ed64bf6a1f0100000000000000008310613828577a184f03e93ff9f4daa797ed6e38ed64bf6a1f010000000000000000838161381e5761381d615038565b5b0492506040810190505b6d04ee2d6d415b85acef81000000008310613865576d04ee2d6d415b85acef8100000000838161385b5761385a615038565b5b0492506020810190505b662386f26fc10000831061389457662386f26fc10000838161388a57613889615038565b5b0492506010810190505b6305f5e10083106138bd576305f5e10083816138b3576138b2615038565b5b0492506008810190505b61271083106138e25761271083816138d8576138d7615038565b5b0492506004810190505b6064831061390557606483816138fb576138fa615038565b5b0492506002810190505b600a8310613914576001810190505b80915050919050565b6040518060800160405280606081526020016000815260200160008152602001606081525090565b828054613951906145e8565b90600052602060002090601f01602090048101928261397357600085556139ba565b82601f1061398c57805160ff19168380011785556139ba565b828001600101855582156139ba579182015b828111156139b957825182559160200191906001019061399e565b5b5090506139c79190613a15565b5090565b6040518060e00160405280600790602082028036833780820191505090505090565b6040518060800160405280606081526020016060815260200160008152602001606081525090565b5b80821115613a2e576000816000905550600101613a16565b5090565b6000604051905090565b600080fd5b600080fd5b60007fffffffff0000000000000000000000000000000000000000000000000000000082169050919050565b613a7b81613a46565b8114613a8657600080fd5b50565b600081359050613a9881613a72565b92915050565b600060208284031215613ab457613ab3613a3c565b5b6000613ac284828501613a89565b91505092915050565b60008115159050919050565b613ae081613acb565b82525050565b6000602082019050613afb6000830184613ad7565b92915050565b600081519050919050565b600082825260208201905092915050565b60005b83811015613b3b578082015181840152602081019050613b20565b83811115613b4a576000848401525b50505050565b6000601f19601f8301169050919050565b6000613b6c82613b01565b613b768185613b0c565b9350613b86818560208601613b1d565b613b8f81613b50565b840191505092915050565b60006020820190508181036000830152613bb48184613b61565b905092915050565b6000819050919050565b613bcf81613bbc565b8114613bda57600080fd5b50565b600081359050613bec81613bc6565b92915050565b600060208284031215613c0857613c07613a3c565b5b6000613c1684828501613bdd565b91505092915050565b613c2881613bbc565b82525050565b6000602082019050613c436000830184613c1f565b92915050565b600073ffffffffffffffffffffffffffffffffffffffff82169050919050565b6000613c7482613c49565b9050919050565b613c8481613c69565b82525050565b6000602082019050613c9f6000830184613c7b565b92915050565b613cae81613c69565b8114613cb957600080fd5b50565b600081359050613ccb81613ca5565b92915050565b60008060408385031215613ce857613ce7613a3c565b5b6000613cf685828601613cbc565b9250506020613d0785828601613bdd565b9150509250929050565b600081519050919050565b600082825260208201905092915050565b6000819050602082019050919050565b600082825260208201905092915050565b6000613d5982613b01565b613d638185613d3d565b9350613d73818560208601613b1d565b613d7c81613b50565b840191505092915050565b613d9081613bbc565b82525050565b60006080830160008301518482036000860152613db38282613d4e565b9150506020830151613dc86020860182613d87565b506040830151613ddb6040860182613d87565b5060608301518482036060860152613df38282613d4e565b9150508091505092915050565b6000613e0c8383613d96565b905092915050565b6000602082019050919050565b6000613e2c82613d11565b613e368185613d1c565b935083602082028501613e4885613d2d565b8060005b85811015613e845784840389528151613e658582613e00565b9450613e7083613e14565b925060208a01995050600181019050613e4c565b50829750879550505050505092915050565b60006020820190508181036000830152613eb08184613e21565b905092915050565b600080fd5b600080fd5b7f4e487b7100000000000000000000000000000000000000000000000000000000600052604160045260246000fd5b613efa82613b50565b810181811067ffffffffffffffff82111715613f1957613f18613ec2565b5b80604052505050565b6000613f2c613a32565b9050613f388282613ef1565b919050565b600067ffffffffffffffff821115613f5857613f57613ec2565b5b613f6182613b50565b9050602081019050919050565b82818337600083830152505050565b6000613f90613f8b84613f3d565b613f22565b905082815260208101848484011115613fac57613fab613ebd565b5b613fb7848285613f6e565b509392505050565b600082601f830112613fd457613fd3613eb8565b5b8135613fe4848260208601613f7d565b91505092915050565b60006020828403121561400357614002613a3c565b5b600082013567ffffffffffffffff81111561402157614020613a41565b5b61402d84828501613fbf565b91505092915050565b60008060006060848603121561404f5761404e613a3c565b5b600061405d86828701613cbc565b935050602061406e86828701613cbc565b925050604061407f86828701613bdd565b9150509250925092565b600080604083850312156140a05761409f613a3c565b5b60006140ae85828601613bdd565b92505060206140bf85828601613bdd565b9150509250929050565b600060808201905081810360008301526140e38187613b61565b905081810360208301526140f78186613b61565b90506141066040830185613c1f565b81810360608301526141188184613b61565b905095945050505050565b60006020828403121561413957614138613a3c565b5b600061414784828501613cbc565b91505092915050565b600081519050919050565b600082825260208201905092915050565b6000819050602082019050919050565b60006141888383613d87565b60208301905092915050565b6000602082019050919050565b60006141ac82614150565b6141b6818561415b565b93506141c18361416c565b8060005b838110156141f25781516141d9888261417c565b97506141e483614194565b9250506001810190506141c5565b5085935050505092915050565b6000602082019050818103600083015261421981846141a1565b905092915050565b6000608082019050818103600083015261423b8187613b61565b905061424a6020830186613c1f565b6142576040830185613c1f565b81810360608301526142698184613b61565b905095945050505050565b61427d81613acb565b811461428857600080fd5b50565b60008135905061429a81614274565b92915050565b600080604083850312156142b7576142b6613a3c565b5b60006142c585828601613cbc565b92505060206142d68582860161428b565b9150509250929050565b600080604083850312156142f7576142f6613a3c565b5b600061430585828601613cbc565b925050602083013567ffffffffffffffff81111561432657614325613a41565b5b61433285828601613fbf565b9150509250929050565b600067ffffffffffffffff82111561435757614356613ec2565b5b61436082613b50565b9050602081019050919050565b600061438061437b8461433c565b613f22565b90508281526020810184848401111561439c5761439b613ebd565b5b6143a7848285613f6e565b509392505050565b600082601f8301126143c4576143c3613eb8565b5b81356143d484826020860161436d565b91505092915050565b600080600080608085870312156143f7576143f6613a3c565b5b600061440587828801613cbc565b945050602061441687828801613cbc565b935050604061442787828801613bdd565b925050606085013567ffffffffffffffff81111561444857614447613a41565b5b614454878288016143af565b91505092959194509250565b6000819050919050565b600061448561448061447b84613c49565b614460565b613c49565b9050919050565b60006144978261446a565b9050919050565b60006144a98261448c565b9050919050565b6144b98161449e565b82525050565b60006020820190506144d460008301846144b0565b92915050565b600080604083850312156144f1576144f0613a3c565b5b60006144ff85828601613cbc565b925050602061451085828601613cbc565b9150509250929050565b6000806000806080858703121561453457614533613a3c565b5b600085013567ffffffffffffffff81111561455257614551613a41565b5b61455e87828801613fbf565b945050602061456f87828801613bdd565b935050604061458087828801613bdd565b925050606085013567ffffffffffffffff8111156145a1576145a0613a41565b5b6145ad87828801613fbf565b91505092959194509250565b7f4e487b7100000000000000000000000000000000000000000000000000000000600052602260045260246000fd5b6000600282049050600182168061460057607f821691505b602082108103614613576146126145b9565b5b50919050565b7f4552433732313a20617070726f76616c20746f2063757272656e74206f776e6560008201527f7200000000000000000000000000000000000000000000000000000000000000602082015250565b6000614675602183613b0c565b915061468082614619565b604082019050919050565b600060208201905081810360008301526146a481614668565b9050919050565b7f4552433732313a20617070726f76652063616c6c6572206973206e6f7420746f60008201527f6b656e206f776e6572206f7220617070726f76656420666f7220616c6c000000602082015250565b6000614707603d83613b0c565b9150614712826146ab565b604082019050919050565b60006020820190508181036000830152614736816146fa565b9050919050565b7f4e487b7100000000000000000000000000000000000000000000000000000000600052603260045260246000fd5b7f4e487b7100000000000000000000000000000000000000000000000000000000600052601160045260246000fd5b60006147a682613bbc565b91507fffffffffffffffffffffffffffffffffffffffffffffffffffffffffffffffff82036147d8576147d761476c565b5b600182019050919050565b7f4e6f206c6f6f74626f7820617661696c61626c65000000000000000000000000600082015250565b6000614819601483613b0c565b9150614824826147e3565b602082019050919050565b600060208201905081810360008301526148488161480c565b9050919050565b7f496e76616c6964206c6f6f74626f78206e616d65000000000000000000000000600082015250565b6000614885601483613b0c565b91506148908261484f565b602082019050919050565b600060208201905081810360008301526148b481614878565b9050919050565b60006148c682613bbc565b9150600082036148d9576148d861476c565b5b600182039050919050565b60006060820190506148f96000830186613c1f565b818103602083015261490b8185613b61565b9050818103604083015261491f8184613b61565b9050949350505050565b7f4552433732313a2063616c6c6572206973206e6f7420746f6b656e206f776e6560008201527f72206f7220617070726f76656400000000000000000000000000000000000000602082015250565b6000614985602d83613b0c565b915061499082614929565b604082019050919050565b600060208201905081810360008301526149b481614978565b9050919050565b6000815190506149ca81613bc6565b92915050565b6000602082840312156149e6576149e5613a3c565b5b60006149f4848285016149bb565b91505092915050565b6000604082019050614a126000830185613c7b565b614a1f6020830184613c1f565b9392505050565b600081519050614a3581614274565b92915050565b600060208284031215614a5157614a50613a3c565b5b6000614a5f84828501614a26565b91505092915050565b7f5769746864726177206661696c65640000000000000000000000000000000000600082015250565b6000614a9e600f83613b0c565b9150614aa982614a68565b602082019050919050565b60006020820190508181036000830152614acd81614a91565b9050919050565b7f4552433732313a20696e76616c696420746f6b656e2049440000000000000000600082015250565b6000614b0a601883613b0c565b9150614b1582614ad4565b602082019050919050565b60006020820190508181036000830152614b3981614afd565b9050919050565b7f4e6f7420746865206f776e657200000000000000000000000000000000000000600082015250565b6000614b76600d83613b0c565b9150614b8182614b40565b602082019050919050565b60006020820190508181036000830152614ba581614b69565b9050919050565b7f4552433732313a2061646472657373207a65726f206973206e6f74206120766160008201527f6c6964206f776e65720000000000000000000000000000000000000000000000602082015250565b6000614c08602983613b0c565b9150614c1382614bac565b604082019050919050565b60006020820190508181036000830152614c3781614bfb565b9050919050565b6000604082019050614c536000830185613c1f565b8181036020830152614c658184613b61565b90509392505050565b600081905092915050565b6000614c8482613b01565b614c8e8185614c6e565b9350614c9e818560208601613b1d565b80840191505092915050565b6000614cb68285614c79565b9150614cc28284614c79565b91508190509392505050565b6000614cd982613bbc565b9150614ce483613bbc565b9250817fffffffffffffffffffffffffffffffffffffffffffffffffffffffffffffffff0483118215151615614d1d57614d1c61476c565b5b828202905092915050565b6000606082019050614d3d6000830186613c7b565b614d4a6020830185613c7b565b614d576040830184613c1f565b949350505050565b7f5061796d656e74206661696c6564000000000000000000000000000000000000600082015250565b6000614d95600e83613b0c565b9150614da082614d5f565b602082019050919050565b60006020820190508181036000830152614dc481614d88565b9050919050565b6000614dd682613bbc565b9150614de183613bbc565b9250827fffffffffffffffffffffffffffffffffffffffffffffffffffffffffffffffff03821115614e1657614e1561476c565b5b828201905092915050565b6000604082019050614e366000830185613c1f565b614e436020830184613c1f565b9392505050565b7f4f776e61626c653a206e6577206f776e657220697320746865207a65726f206160008201527f6464726573730000000000000000000000000000000000000000000000000000602082015250565b6000614ea6602683613b0c565b9150614eb182614e4a565b604082019050919050565b60006020820190508181036000830152614ed581614e99565b9050919050565b600081905092915050565b60008190508160005260206000209050919050565b60008154614f09816145e8565b614f138186614edc565b94506001821660008114614f2e5760018114614f3f57614f72565b60ff19831686528186019350614f72565b614f4885614ee7565b60005b83811015614f6a57815481890152600182019150602081019050614f4b565b838801955050505b50505092915050565b6000614f878284614efc565b915081905092915050565b6000819050919050565b614fad614fa882613bbc565b614f92565b82525050565b60008160601b9050919050565b6000614fcb82614fb3565b9050919050565b6000614fdd82614fc0565b9050919050565b614ff5614ff082613c69565b614fd2565b82525050565b60006150078286614f9c565b6020820191506150178285614fe4565b6014820191506150278284614f9c565b602082019150819050949350505050565b7f4e487b7100000000000000000000000000000000000000000000000000000000600052601260045260246000fd5b600061507282613bbc565b915061507d83613bbc565b92508261508d5761508c615038565b5b828206905092915050565b60006150a382613bbc565b91506150ae83613bbc565b9250828210156150c1576150c061476c565b5b828203905092915050565b7f4552433732313a206d696e7420746f20746865207a65726f2061646472657373600082015250565b6000615102602083613b0c565b915061510d826150cc565b602082019050919050565b60006020820190508181036000830152615131816150f5565b9050919050565b7f4552433732313a20746f6b656e20616c7265616479206d696e74656400000000600082015250565b600061516e601c83613b0c565b915061517982615138565b602082019050919050565b6000602082019050818103600083015261519d81615161565b9050919050565b7f45524337323155524953746f726167653a2055524920736574206f66206e6f6e60008201527f6578697374656e7420746f6b656e000000000000000000000000000000000000602082015250565b6000615200602e83613b0c565b915061520b826151a4565b604082019050919050565b6000602082019050818103600083015261522f816151f3565b9050919050565b7f4552433732313a207472616e736665722066726f6d20696e636f72726563742060008201527f6f776e6572000000000000000000000000000000000000000000000000000000602082015250565b6000615292602583613b0c565b915061529d82615236565b604082019050919050565b600060208201905081810360008301526152c181615285565b9050919050565b7f4552433732313a207472616e7366657220746f20746865207a65726f2061646460008201527f7265737300000000000000000000000000000000000000000000000000000000602082015250565b6000615324602483613b0c565b915061532f826152c8565b604082019050919050565b6000602082019050818103600083015261535381615317565b9050919050565b7f4f776e61626c653a2063616c6c6572206973206e6f7420746865206f776e6572600082015250565b6000615390602083613b0c565b915061539b8261535a565b602082019050919050565b600060208201905081810360008301526153bf81615383565b9050919050565b7f4552433732313a20617070726f766520746f2063616c6c657200000000000000600082015250565b60006153fc601983613b0c565b9150615407826153c6565b602082019050919050565b6000602082019050818103600083015261542b816153ef565b9050919050565b7f4552433732313a207472616e7366657220746f206e6f6e20455243373231526560008201527f63656976657220696d706c656d656e7465720000000000000000000000000000602082015250565b600061548e603283613b0c565b915061549982615432565b604082019050919050565b600060208201905081810360008301526154bd81615481565b9050919050565b600081519050919050565b600082825260208201905092915050565b60006154eb826154c4565b6154f581856154cf565b9350615505818560208601613b1d565b61550e81613b50565b840191505092915050565b600060808201905061552e6000830187613c7b565b61553b6020830186613c7b565b6155486040830185613c1f565b818103606083015261555a81846154e0565b905095945050505050565b60008151905061557481613a72565b92915050565b6000602082840312156155905761558f613a3c565b5b600061559e84828501615565565b9150509291505056fea2646970667358221220195a37a7e7ee75e4c852e39d7864b281aaa900297ca25a3f3179ebea9462e54764736f6c634300080d0033697066733a2f2f516d555a6e4a38625448466a54437159574648455169365a355036546767473176514c5263546661314442796662697066733a2f2f516d637047386a6141694e416e3155785468584e527a3139574d3357554d465147716532316a6f7077446e4a487a697066733a2f2f516d58477a5a753142324157785a5476316458516b474c64787a61546545416950666354345359764a355643646e697066733a2f2f516d5767505574767468766b526f724d3969423958745a6a35666a79685734466555414e6d63714e567174565931697066733a2f2f516d65574b6b69625673475561483868576b386b724d56526235516f4876326a7762594a4741756145357a477155697066733a2f2f516d597769334467456a52464d546f58743559414446354534644458367678726e6736674850544436355a504d53697066733a2f2f516d53333946415a647667707533425a546e7554537741393937384a54566a796d6145734e6d55714264336b7361697066733a2f2f516d4e55797179614e557044426448454a534771457548455a47767944726d5a676e435a4d486754764745716b64697066733a2f2f516d4e4e374332424268486268334b78716d5741594838467855446231787368487563356374704243796a756a6d697066733a2f2f516d52714e6b524561694a7345474c5878317a376748556d4436444a7632464b554751715635725a6e4c73446338697066733a2f2f516d58347550463754535458706244774d5956445577636376385443764a41354b615948775a617762785259534e",
  "immutableReferences": {},
  "source": "// SPDX-License-Identifier: MIT\r\npragma solidity ^0.8.0;\r\n\r\nimport \"@openzeppelin/contracts/token/ERC721/extensions/ERC721URIStorage.sol\";\r\nimport \"@openzeppelin/contracts/token/ERC20/IERC20.sol\";\r\nimport \"@openzeppelin/contracts/access/Ownable.sol\";\r\n\r\ncontract GPTWarsLootboxNFT is ERC721URIStorage, Ownable {\r\n    uint public nextTokenId = 1;\r\n    IERC20 public gptWarsToken;\r\n    address public gameContract;\r\n\r\n    struct Lootbox {\r\n        string name;\r\n        uint lootboxLevel;\r\n        uint price;\r\n        string metadataURI;\r\n    }\r\n\r\n    struct Cosmetic {\r\n        string name;\r\n        string itemType;\r\n        uint rarity;\r\n        string metadataURI;\r\n    }\r\n\r\n    uint[6] public lootBoxLevel = [0, 1, 2, 3, 4, 5];\r\n\r\n    mapping(uint => Cosmetic[]) public cosmeticSets;\r\n    mapping(address => uint) public lootboxBalance;\r\n    mapping(uint => Lootbox) public lootboxTypes;\r\n    mapping(address => uint[]) public userNFTs;\r\n\r\n    event CosmeticMinted(address indexed user, uint tokenId, string cosmeticName, string metadataURI);\r\n    event LootboxBought(address indexed user, uint quantity, uint packType);\r\n    event NFTEvolved(uint newTokenId, uint oldTokenId1, uint oldTokenId2, uint oldTokenId3);\r\n    event LootboxCreated(string name, uint lootboxLevel, uint price, string metadataURI);\r\n    event NFTCreated(address indexed user, uint tokenId, string metadataURI);\r\n    constructor(address _gptWarsToken) ERC721(\"GPTWars Lootbox\", \"GPTLNFT\") {\r\n        gptWarsToken = IERC20(_gptWarsToken);\r\n        _initializeLootboxes();\r\n        _addInitialCosmetics();\r\n    }\r\n\r\n    function _initializeLootboxes() internal {\r\n        lootboxTypes[0] = Lootbox(\"Junk Box\", 0, 5 * 10**3, \"ipfs://QmX4uPF7TSTXpbDwMYVDUwccv8TCvJA5KaYHwZawbxRYSN\");\r\n        lootboxTypes[1] = Lootbox(\"Cheap Box\", 1, 15 * 10**3, \"ipfs://QmNN7C2BBhHbh3KxqmWAYH8FxUDb1xshHuc5ctpBCyjujm\");\r\n        lootboxTypes[2] = Lootbox(\"Good Box\", 2, 30 * 10**3, \"ipfs://QmeWKkibVsGUaH8hWk8krMVRb5QoHv2jwbYJGAuaE5zGqU\");\r\n        lootboxTypes[3] = Lootbox(\"Great Box\", 3, 50 * 10**3, \"ipfs://QmRqNkREaiJsEGLXx1z7gHUmD6DJv2FKUGQqV5rZnLsDc8\");\r\n        lootboxTypes[4] = Lootbox(\"Epic Box\", 4, 80 * 10**3, \"ipfs://QmUZnJ8bTHFjTCqYWFHEQi6Z5P6TggG1vQLRcTfa1DByfb\");\r\n        lootboxTypes[5] = Lootbox(\"Legendary Box\", 5, 150 * 10**3, \"ipfs://QmXGzZu1B2AWxZTv1dXQkGLdxzaTeEAiPfcT4SYvJ5VCdn\");\r\n    }\r\n\r\n    function _addInitialCosmetics() internal {\r\n        cosmeticSets[0].push(Cosmetic(\"Assault Visor\", \"Hat\", 0, \"ipfs://QmWgPUtvthvkRorM9iB9XtZj5fjyhW4FeUANmcqNVqtVY1\"));\r\n        cosmeticSets[5].push(Cosmetic(\"Camo Snapback\", \"Hat\", 5, \"ipfs://QmcpG8jaAiNAn1UxThXNRz19WM3WUMFQGqe21jopwDnJHz\"));\r\n        cosmeticSets[1].push(Cosmetic(\"Combat Fedora\", \"Hat\", 1, \"ipfs://QmYwi3DgEjRFMToXt5YADF5E4dDX6vxrng6gHPTD65ZPMS\"));\r\n        cosmeticSets[2].push(Cosmetic(\"Dusty Cap\", \"Hat\", 2, \"ipfs://QmNUyqyaNUpDBdHEJSGqEuHEZGvyDrmZgnCZMHgTvGEqkd\"));\r\n        cosmeticSets[3].push(Cosmetic(\"elite-marksman-cap\", \"Hat\", 3, \"ipfs://QmS39FAZdvgpu3BZTnuTSwA9978JTVjymaEsNmUqBd3ksa\"));\r\n    }\r\n\r\n   function _randomChance(uint lootboxlevel) internal view returns (uint) {\r\n    uint randomNumber = uint(keccak256(abi.encodePacked(block.timestamp, msg.sender, nextTokenId))) % 1000;\r\n    uint256[7] memory probabilities;\r\n\r\n    if (lootboxlevel == 0) { // Junk Box\r\n        probabilities[0] = 700;\r\n        probabilities[1] = 900;\r\n        probabilities[2] = 970;\r\n        probabilities[3] = 999;\r\n        probabilities[4] = 1000;\r\n        probabilities[5] = 1000;\r\n        probabilities[6] = 1000;\r\n    } else if (lootboxlevel == 1) { // Cheap Box\r\n        probabilities[0] = 300;\r\n        probabilities[1] = 700;\r\n        probabilities[2] = 930;\r\n        probabilities[3] = 990;\r\n        probabilities[4] = 1000;\r\n        probabilities[5] = 1000;\r\n        probabilities[6] = 1000;\r\n    } else if (lootboxlevel == 2) { // Good Box\r\n        probabilities[0] = 15;\r\n        probabilities[1] = 115;\r\n        probabilities[2] = 515;\r\n        probabilities[3] = 815;\r\n        probabilities[4] = 940;\r\n        probabilities[5] = 990;\r\n        probabilities[6] = 1000;\r\n    } else if (lootboxlevel == 3) { // Great Box\r\n        probabilities[0] = 0;\r\n        probabilities[1] = 20;\r\n        probabilities[2] = 100;\r\n        probabilities[3] = 470;\r\n        probabilities[4] = 870;\r\n        probabilities[5] = 970;\r\n        probabilities[6] = 1000;\r\n    } else if (lootboxlevel == 4) { // Epic Box\r\n        probabilities[0] = 0;\r\n        probabilities[1] = 0;\r\n        probabilities[2] = 10;\r\n        probabilities[3] = 80;\r\n        probabilities[4] = 680;\r\n        probabilities[5] = 900;\r\n        probabilities[6] = 1000;\r\n    } else if (lootboxlevel == 5) { // Legendary Box\r\n        probabilities[0] = 0;\r\n        probabilities[1] = 0;\r\n        probabilities[2] = 0;\r\n        probabilities[3] = 20;\r\n        probabilities[4] = 100;\r\n        probabilities[5] = 720;\r\n        probabilities[6] = 1000;\r\n    }\r\n\r\n    for (uint i = 0; i < probabilities.length; i++) {\r\n        if (randomNumber < probabilities[i]) {\r\n            return i; // Retourne le niveau de raret du NFT\r\n        }\r\n    }\r\n\r\n    return 0; // Par dfaut, retourne \"Pas de NFT\"\r\n}\r\n\r\n  function createNFT(address recipient, string memory metadataURI) public onlyOwner {\r\n        _mint(recipient, nextTokenId);\r\n        _setTokenURI(nextTokenId, metadataURI);\r\n        userNFTs[recipient].push(nextTokenId);\r\n        emit NFTCreated(recipient, nextTokenId, metadataURI);\r\n        nextTokenId++;\r\n    }\r\n    function buyLootboxes(uint quantity, uint lootboxlevel) public {\r\n        uint packPrice = lootboxTypes[lootboxlevel].price;\r\n        require(gptWarsToken.transferFrom(msg.sender, address(this), packPrice * quantity), \"Payment failed\");\r\n\r\n        lootboxBalance[msg.sender] += quantity;\r\n        emit LootboxBought(msg.sender, quantity, lootboxlevel);\r\n    }\r\n    function openLootbox(uint lootboxlevel) public {\r\n    require(lootboxBalance[msg.sender] > 0, \"No lootbox available\");\r\n    lootboxBalance[msg.sender]--;\r\n\r\n    uint rarityLevel = _randomChance(lootboxlevel);\r\n\r\n    if (rarityLevel > 0) {\r\n        // Slectionner un NFT de cette raret\r\n        Cosmetic memory selectedCosmetic = _selectCosmetic(rarityLevel);\r\n\r\n        _mint(msg.sender, nextTokenId);\r\n        _setTokenURI(nextTokenId, selectedCosmetic.metadataURI);\r\n        userNFTs[msg.sender].push(nextTokenId);\r\n\r\n        emit CosmeticMinted(msg.sender, nextTokenId, selectedCosmetic.name, selectedCosmetic.metadataURI);\r\n        nextTokenId++;\r\n    }\r\n}\r\n function openOneLootbox(string memory name) public {\r\n        require(lootboxBalance[msg.sender] > 0, \"No lootbox available\");\r\n\r\n        uint lootboxLevel = _getLootboxLevelByName(name);\r\n        require(lootboxLevel > 0, \"Invalid lootbox name\");\r\n\r\n        lootboxBalance[msg.sender]--;\r\n\r\n        uint rarityLevel = _randomChance(lootboxLevel);\r\n\r\n        if (rarityLevel > 0) {\r\n            Cosmetic memory selectedCosmetic = _selectCosmetic(rarityLevel);\r\n            _mint(msg.sender, nextTokenId);\r\n            _setTokenURI(nextTokenId, selectedCosmetic.metadataURI);\r\n            userNFTs[msg.sender].push(nextTokenId);\r\n            emit CosmeticMinted(msg.sender, nextTokenId, selectedCosmetic.name, selectedCosmetic.metadataURI);\r\n            nextTokenId++;\r\n        }\r\n    }\r\n\r\n    function _getLootboxLevelByName(string memory name) internal view returns (uint) {\r\n        for (uint i = 0; i < 6; i++) {\r\n            if (keccak256(bytes(lootboxTypes[i].name)) == keccak256(bytes(name))) {\r\n                return lootboxTypes[i].lootboxLevel;\r\n            }\r\n        }\r\n        return 0; // Return 0 if lootbox not found\r\n    }\r\n\r\n\r\n    function _selectCosmetic(uint lootboxlevel) internal view returns (Cosmetic memory) {\r\n        uint random = uint(keccak256(abi.encodePacked(block.timestamp, msg.sender, nextTokenId))) % 1000;\r\n        uint cumulativeProbability = 0;\r\n        Cosmetic[] memory cosmetics = cosmeticSets[lootboxlevel];\r\n\r\n        for (uint i = 0; i < cosmetics.length; i++) {\r\n            cumulativeProbability += cosmetics[i].rarity;\r\n            if (random < cumulativeProbability) {\r\n                return cosmetics[i];\r\n            }\r\n        }\r\n        return cosmetics[cosmetics.length - 1];\r\n    }\r\n\r\n    function getAllLootboxes() public view returns (Lootbox[] memory) {\r\n        Lootbox[] memory allLootboxes = new Lootbox[](6);\r\n        for (uint i = 0; i < 6; i++) {\r\n            allLootboxes[i] = lootboxTypes[i];\r\n        }\r\n        return allLootboxes;\r\n    }\r\n\r\n    function getLootboxNFTs(address user) public view returns (uint[] memory) {\r\n        return userNFTs[user];\r\n    }\r\n\r\n    function createLootbox(string memory name, uint lootboxLevel, uint price, string memory metadataURI) public onlyOwner {\r\n        lootboxTypes[lootboxLevel] = Lootbox(name, lootboxLevel, price, metadataURI);\r\n        emit LootboxCreated(name, lootboxLevel, price, metadataURI);\r\n    }\r\n\r\n    function withdraw() public onlyOwner {\r\n        uint balance = gptWarsToken.balanceOf(address(this));\r\n        require(gptWarsToken.transfer(owner(), balance), \"Withdraw failed\");\r\n    }\r\n\r\n    function setGameContract(address _gameContract) external onlyOwner {\r\n        gameContract = _gameContract;\r\n    }\r\n\r\n    function approveGameContract(uint tokenId) public {\r\n        require(ownerOf(tokenId) == msg.sender, \"Not the owner\");\r\n        approve(gameContract, tokenId);\r\n    }\r\n}",
  "sourcePath": "C:\\Users\\Ghofrane\\Desktop\\GPT-Wars\\LootBoxes\\GPTWLootboxNFT-contract_v1\\contracts\\GPTWLootboxNFT.sol",
  "compiler": {
    "name": "solc",
    "version": "0.8.13+commit.abaa5c0e.Emscripten.clang"
  },
  "schemaVersion": "3.4.16",
  "updatedAt": "2025-03-24T00:20:52.513Z",
  "networkType": "ethereum",
  "devdoc": {
    "kind": "dev",
    "methods": {
      "approve(address,uint256)": {
        "details": "See {IERC721-approve}."
      },
      "balanceOf(address)": {
        "details": "See {IERC721-balanceOf}."
      },
      "getApproved(uint256)": {
        "details": "See {IERC721-getApproved}."
      },
      "isApprovedForAll(address,address)": {
        "details": "See {IERC721-isApprovedForAll}."
      },
      "name()": {
        "details": "See {IERC721Metadata-name}."
      },
      "owner()": {
        "details": "Returns the address of the current owner."
      },
      "ownerOf(uint256)": {
        "details": "See {IERC721-ownerOf}."
      },
      "renounceOwnership()": {
        "details": "Leaves the contract without owner. It will not be possible to call `onlyOwner` functions. Can only be called by the current owner. NOTE: Renouncing ownership will leave the contract without an owner, thereby disabling any functionality that is only available to the owner."
      },
      "safeTransferFrom(address,address,uint256)": {
        "details": "See {IERC721-safeTransferFrom}."
      },
      "safeTransferFrom(address,address,uint256,bytes)": {
        "details": "See {IERC721-safeTransferFrom}."
      },
      "setApprovalForAll(address,bool)": {
        "details": "See {IERC721-setApprovalForAll}."
      },
      "supportsInterface(bytes4)": {
        "details": "See {IERC165-supportsInterface}"
      },
      "symbol()": {
        "details": "See {IERC721Metadata-symbol}."
      },
      "tokenURI(uint256)": {
        "details": "See {IERC721Metadata-tokenURI}."
      },
      "transferFrom(address,address,uint256)": {
        "details": "See {IERC721-transferFrom}."
      },
      "transferOwnership(address)": {
        "details": "Transfers ownership of the contract to a new account (`newOwner`). Can only be called by the current owner."
      }
    },
    "version": 1
  },
  "userdoc": {
    "kind": "user",
    "methods": {},
    "version": 1
  }
}